S01A0000546861694B617572695F415454696E7938352E7372656383
S11300000EC015C0A8C013C012C011C010C00FC0CC
S11300100EC00DC00CC00BC00AC009C008C011241A
S11300201FBECFE5D2E0DEBFCDBFC4D0C6C0E8CF8F
S1130030F89483B783BF8AB583608ABD8AB5806824
S11300408ABD8AB580628ABD83B7816083BF8CB55F
S113005080648CBD8CB580618CBD80B7816080BFAD
S113006019BC18BC1BBC8BB780628BBF85B38C6278
S113007085BB789487B387BB87B3836187BB0895B7
S113008080E090E08F3F91055CF489BD88BD8EBD12
S1130090EFE9FFE03197F1F700C000000196F2CFDD
S11300A08FEF90E0181619065CF489BD88BD8EBDEB
S11300B0EFE9FFE03197F1F700C000000197F2CFBC
S11300C00895DEDF089580E090E08F3F910564F4A9
S11300D019BC88BD2FEF2EBDEFE9FFE03197F1F792
S11300E000C000000196F1CF8FEF90E018161906BA
S11300F074F4282F209529BD88BD2FEF2EBDEFE97C
S1130100FFE03197F1F700C000000197EFCF0895A9
S113011080E090E08F3F910564F420E829BD88BD1C
S11301202EBDEFE9FFE03197F1F700C00000019622
S1130130F1CF8FEF90E01816190664F420E829BD7A
S113014088BD2EBDEFE9FFE03197F1F700C0000054
S11301500197F1CF08951F920F920FB60F921124B9
S11301602F933F934F935F936F937F938F939F93BB
S1130170AF93BF93EF93FF93B29B04C0B29B08C0AD
S1130180A2DFFCCFB39B04C0B39B02C0C1DFFCCF92
S11301901895FF91EF91BF91AF919F918F917F91AE
S11301A06F915F914F913F912F910F900FBE0F90E0
S11101B01F9018953DDF85DFFECFF894FFCF3A
S9030000FC
